:020000040800F2
:1000000060080020910100087F240008871F000875
:100010007D2400088506000819290008000000005A
:10002000000000000000000000000000972600080B
:10003000F507000800000000812400089926000848
:10004000AB010008AB010008AB010008AB010008E0
:10005000AB010008AB010008AB010008FF07000876
:10006000AB010008AB01000805080008AB0100085F
:10007000AB010008AB010008AB010008AB010008B0
:10008000AB010008AB010008AB010008AB010008A0
:10009000AB010008AB010008AB010008AB01000890
:1000A000AB010008AB010008AB010008AB01000880
:1000B000AB010008AB010008AB010008AB01000870
:1000C000AB010008AB010008AB010008AB01000860
:1000D000AB010008AB010008AB010008AB01000850
:1000E000F7070008AB010008AB01000800F002F8B8
:1000F00000F03FF80AA090E8000C82448344AAF183
:100100000107DA4501D100F034F8AFF2090EBAE880
:100110000F0013F0010F18BFFB1A43F0010318473B
:10012000D42A0000F42A0000103A24BF78C878C10D
:10013000FAD8520724BF30C830C144BF04680C60ED
:10014000704700000023002400250026103A28BF35
:1001500078C1FBD8520728BF30C148BF0B60704739
:10016000642900F07180002070471FB51FBD10B5D5
:1001700010BD00F0E2F91146FFF7F7FF02F0E4FBD3
:1001800000F000FA03B4FFF7F2FF03BC00F008FA36
:100190000948804709480047FEE7FEE7FEE7FEE71B
:1001A000FEE7FEE7FEE7FEE7FEE7FEE70448054957
:1001B000054A064B704700000F270008ED000008B5
:1001C000600200206008002060040020600400201D
:1001D0000FB41CB5074B06AA7B44694600900598EE
:1001E00000F093F90020694600F0A2F91CBC5DF80C
:1001F00014FB00005503000070B5044685690068D3
:10020000C10601D5302600E02026C00707D070BD0A
:10021000D4E9012130469047206A401C20626D1EBF
:10022000F6D570BD70B5044685690078C00707D162
:1002300070BDD4E9012120209047206A401C206233
:100240006D1EF6D570BD00002DE9F0410646002474
:1002500010687529314616A510D0AFF3008000282C
:1002600002DA404213A507E031688A0701D512A5DA
:1002700002E0490704D511A5012401E0AFF3008095
:1002800000210A2206F1240709E0B0FBF2FCB0FBD2
:10029000F2F302FB1C00303078541846491C002849
:1002A000F3D123462A463046BDE8F04100F0CEB8EF
:1002B000000000002D0000002B00000020000000C6
:1002C0002DE9F05F894604464FF0000ADFF824B1BB
:1002D000FB44C0F820A02046E168884700287DD074
:1002E000252806D0D4E901219047206A401C2062CD
:1002F000F1E700255F462046E1688847202806464A
:1003000007DB312E05D2B81910F8200C08B10543CF
:10031000F1E7A80701D525F00405C4F81CA00027C3
:10032000C4F818A02A2E09D0304602F006FB38B3D4
:1003300004EB8708303EC8F8186019E059F8041B30
:10034000204604EB87029161E1688847012F064649
:1003500018D1E069002820DA25F020051DE0D8F842
:10036000180000EB800006EB40003038C8F8180099
:100370002046E1688847064602F0DFFA0028EED101
:10038000012F0AD02E2E08D12046E16888477F1C15
:100390000646022F45F02005C4DBA069002803DAD9
:1003A000404245F00105A061E80701D025F01005A5
:1003B000A6B1A6F14100192802D8203645F40065FF
:1003C0004A463146204625604D46FFF7C9FE60B1DA
:1003D000012807D0ED1D25F0070000E007E000F13F
:1003E000080978E705F1040975E730467AE7206ADD
:1003F000BDE8F09F0C2900004FF0000200B5134645
:1004000094469646203922BFA0E80C50A0E80C5034
:10041000B1F12001BFF4F7AF090728BFA0E80C50E5
:1004200048BF0CC05DF804EB890028BF40F8042BDE
:1004300008BF704748BF20F8022B11F0804F18BF4B
:1004400000F8012B70477047704770472DE9F0475F
:100450000D4699469246044600F124080168880634
:1004600004D5E06921F01001216000E00120A842DC
:1004700001DD471B00E00027A1697A1902EB0900A2
:10048000081AA0612078C00602D42046FFF7B4FE07
:10049000002608E0D4E901211AF806009047206AF6
:1004A000401C761C20624E45F4DB2078C0060AD53D
:1004B0002046FFF7A1FE06E0D4E901213020904755
:1004C000206A401C2062381EA7F10107F4DC07E017
:1004D000D4E9012118F805009047206A401C2062E9
:1004E000281EA5F10105F3DC2046FFF79BFE2078CE
:1004F000000602D50220BDE8F0870120FBE70000DE
:1005000001694A1C02610878704700B58FB0CDE9D7
:1005100001310021059105497944CDE903101146C7
:100520006846FFF7CDFE0FB000BD0000E5FFFFFFFE
:100530000A6802F8010B0A607047754600F02CF853
:10054000AE4605006946534620F00700854618B0C0
:1005500020B5FFF72BFEBDE820404FF000064FF01E
:1005600000074FF000084FF0000B21F00701AC46E8
:10057000ACE8C009ACE8C009ACE8C009ACE8C00907
:100580008D46704710B50446AFF300802046BDE8A5
:100590001040FFF7F7BD0000004870470002002040
:1005A00001491820ABBEFEE726000200704700009C
:1005B00070B5044600688168C943C90717D18168CE
:1005C00021F00101816000F029FC05460AE000BF2E
:1005D00000F024FC401B022804D920688068C04336
:1005E000C00706D020688068C043C007F0D0002054
:1005F00070BDA06A40F01000A062E06A40F0010007
:10060000E062012070BD0000F8B5002604460096A7
:1006100000688168C943C9072DD0816841F0010194
:100620008160164816490068B0FBF1F000E0401EFA
:1006300000900028FBD100F0F1FB054616E000BF5A
:1006400000F0ECFB401B022810D920688068C043F2
:10065000C0070BD0A06A40F01000A062E06A40F032
:100660000100E06284F824600120F8BD2068806801
:10067000C043C007E4D10020F8BD000028000020DE
:1006800040420F00FEE710B5044602982160227137
:100690006371A0712820A0720620E0710C202072E6
:1006A000142060720820E072322000F065FA002207
:1006B0003321204600F069F800223321204600F063
:1006C00064F8052000F058FA00223221204600F09C
:1006D0005CF8052000F050FA00222021204600F0AE
:1006E00054F8052000F048FAE1790022204600F095
:1006F0004CF8217A0022204600F047F8617A002267
:10070000204600F042F8A17A0022204600F03DF891
:1007100000220121204600F038F820460022BDE8E2
:100720001040022100F031B830B4447900238C42EB
:1007300001D8641EE1B28479944201D8641EE2B209
:1007400032B1012A06D0022A06D0032A06D007E0D9
:100750000B4605E0403102E0143100E05431CBB2E9
:1007600030BC43F08001002200F00FB8012200F0FD
:100770000CB870B50C46054603E02846641CFFF72C
:10078000F5FF21780029F8D170BD7CB50646080731
:10079000040EF07A01F0F00518B145F0080544F0B8
:1007A0000804012A01D02AB108E045F0010544F00F
:1007B000010403E025F0010524F0010445F00400E4
:1007C0008DF80400012000F0D7F98DF8055044F0B1
:1007D00004008DF80600012000F0CEF94FF47A7085
:1007E0008DF8074000903179042301AA306800F0A9
:1007F000DFFB7CBD70474FF4806000F005BA02203B
:1008000000F002BA102000F0FFB90000F8B5002493
:10081000009490F824202546012A12D0012280F865
:1008200024204A681F23072A0DD20668776B521EC0
:1008300002EB820293409F430B6893401F43776310
:1008400019E00220F8BD06680D2A0AD2376BD21FC4
:1008500002EB820293409F430B6893401F43376330
:1008600009E0F76A0D3A02EB820293409F430B685E
:1008700093401F43F7620A68072306680A2A0AD3CF
:10088000F7680A3A02EB420293409F438B68934019
:100890001F43F76008E0376902EB420293409F4331
:1008A0008B6893401F4337610A68102A01D0112AD0
:1008B00020D1124B02689A4217D193681B0219D4B7
:1008C000936843F4000393600968102912D10C491E
:1008D0000C4A0968B1FBF2F101EB8101490000E02B
:1008E000491E00910029FBD104E0816A41F02001FA
:1008F0008162012480F824502046F8BD0024014084
:100900002800002040420F000068C06C70470000C3
:100910002DE9F0414FF0000704003D467ED0A06A6B
:10092000002628B9E66284F82460204600F07EF8AC
:100930002046FFF73DFEA16AC90600D420B1A06A97
:1009400040F01000A06269E0A16A21F4885141F0F2
:100950000201A1626268E169237B0A4347EA43011D
:100960000A43A1684FF48077B94209D0012907D022
:100970005FF0000194F814C0BCF1010F02D00AE04E
:100980003946F7E7F3B1A36A43F02003A362E36AB1
:1009900043F00103E3622368D3F804C02CF4694CEC
:1009A0004CEA010CC3F804C021688B68DFF870C002
:1009B00003EA0C0313438B60A168B9420BD00129F1
:1009C00009D00CE0DFF85CC0A3690CEB43330B43A8
:1009D00043F40061DFE7218A0D05A5F58015216844
:1009E000CB6A23F470032B43CB62216889680E4BDA
:1009F0001940914208D1E662A16A21F0020141F05A
:100A00000101A162BDE8F081A06A20F0020040F07F
:100A10001000A062E06A40F00100E0620120F1E70E
:100A2000FDF7E1FF00E0FFFFFE0E1FFF00B585B000
:100A30000021009101910291039100680E498842C2
:100A400018D10E48816941F400718161816901F416
:100A500000710491816941F00401816180696946F6
:100A600000F004000490012000900320019004484D
:100A700000F0D6F805B000BD00240140001002408F
:100A80000008014070B5044690F8240001280DD0FC
:100A9000012084F824002046FFF7B6FD02004FF045
:100AA000000005D084F82400104670BD022070BDFF
:100AB000A16A40F20123994341F48071A1621F4D64
:100AC00023681F49AB4218D10E6816F4702F14D05A
:100AD000A66A46F48016A6620E68760505D5A66A53
:100AE00026F4005646F48056A662A66AF6040AD595
:100AF000E66A26F00606E66206E0A66A26F4801696
:100B0000A6625E68E9E7E06284F824006FF0020004
:100B1000186020688368C3F34243072B05D1A842BD
:100B200008D1096811F4702F04D0816841F4801154
:100B30008160B9E7816841F4A001F9E7002801402C
:100B40000424014010B5044690F82400012807D081
:100B5000012084F824002046FFF72AFD10B107E0A9
:100B6000022010BDA16A21F4885141F00101A16267
:100B7000002184F8241010BD70B5044600F04EF931
:100B80000546601C02D004480078044400F046F991
:100B9000401BA042FAD370BD1C000020174A30B49D
:100BA0009368022815D011461028C9680AD0B0F5FC
:100BB000806F05D1022B03D101291CD00120D06008
:100BC00030BC70470229FBD130BC01210C4800F039
:100BD00017B90C48002102E0401E41F1FF31002509
:100BE0002C462D1A8C41F7DB012B02D0012090609E
:100BF000E6E70220FBE70220E1E70000000000201A
:100C0000000C0140A0860100044910B50A680242A8
:100C100002D00860FFF7C2FF10BD000014040140BD
:100C20002DE9F84FDFF8B8910024A9F1040B234611
:100C30000F2709F1040AABF1040EC9E00125A54014
:100C40002A40AA427DD1674ED1F804C0ACEB060819
:100C5000B44532D014DCBCF1030F3AD009DCBCF14E
:100C6000000F2AD0BCF1010F1CD0BCF1020F31D112
:100C70001DE0BCF1110F17D0BCF1120F2AD119E001
:100C8000B8F5881F19D006DCB8F5803F15D0B8F547
:100C9000801F1FD111E0B8F5001F0ED0B8F5041F5A
:100CA00018D10AE0CB6815E0CB681B1D12E0CB68B9
:100CB00008330FE0CB680C330CE08B682BB1012BB1
:100CC0004FF0080303D0456104E0042302E005610E
:100CD00000E00023FF2A01D8064601E000F10406E7
:100CE0004FEA840501D9A5F12005D6F8008007FA5E
:100CF00005FC28EA0C0803FA05F548EA0508C6F8D9
:100D000000804D68ED0062D5374DAE6946F00106B2
:100D1000AE61AD6924F0030605F001050095334D81
:100D200006EB050CDCF80850A607360F07FA06F8A4
:100D300025EA0805DFF8B880404503D14FF00008E8
:100D400017E044E0DFF8AC80404502D14FF00108E5
:100D50000FE0DFF8A480404502D14FF0020808E020
:100D6000DFF89880404502D14FF0030801E04FF0D2
:100D7000040808FA06F848EA0508CCF808804D6827
:100D8000D9F80060ED024D4601D5164300E09643C8
:100D90002E604D68DAF80060AD02554601D5164365
:100DA00000E096432E604D68DBF80060AD035D46C1
:100DB00001D5164300E096432E604D68DEF80060D2
:100DC000ED03754601D5164300E096432E60641C82
:100DD0000D682A46E5407FF431AFBDE8F88F00008A
:100DE0000804014000001110001002400000014002
:100DF00000080140000C01400010014000140140B7
:100E0000C26821EA02030A4043EA024101617047D5
:100E10000AB1016170470904FBE7000001488068DE
:100E2000704700001C00002070B5040025D094F825
:100E30003D00002520B984F83C50204600F04EF9D2
:100E4000242084F83D002068016821F00101016040
:100E50002068016841F4004101602068016821F4C4
:100E60000041016000F064FB4D4A6168914201D885
:100E70004C4900E04C49884201D2012070BD4B49E9
:100E80002368B0FBF1F15E6826F03F060E435E601A
:100E90006368934206D94FF4967359434FF47A73BB
:100EA000B1FBF3F12368491C1E6A26F03F0631436B
:100EB00019626168914210D84900401EB0FBF1F2FE
:100EC000521CC2F30B02042A01D2042022E0B0FB20
:100ED000F1F0401CC0F30B001CE0A268F2B301EB80
:100EE000C10303EB0116431EB3FBF6F35B1C43F493
:100EF00080431B0549D092B301EBC10202EB011103
:100F0000401EB0FBF1F0401CC0F30B0040F48040E9
:100F100040F400402168CA694CF6FF739A431043BD
:100F2000C861D4E9071001432068026822F0C002BA
:100F300011430160D4E9030101432068826848F24B
:100F4000FF339A4311438160D4E9050108432168C6
:100F5000CA6822F0FF021043C86001E00EE016E00C
:100F60002068016841F0010101602564202084F8B7
:100F70003D00256384F83E50002070BD01EB410622
:100F8000431EB3FBF6F35B1CB3E70120C2E701EBA2
:100F90004101401EB0FBF1F0401CC0F30B00B7E76D
:100FA000A086010080841E0000093D0040420F0021
:100FB0002DE9F84F1F4690468A460446DDF82890F2
:100FC000FFF72CFF054694F83D0020287FD1192318
:100FD000012240492046009501F068F8002876D1AA
:100FE00094F83C00012872D0012084F83C0020686D
:100FF0000168C90703D1016841F00101016020685F
:10100000016821F400610160212084F83D00102076
:1010100084F83E0000262664C4F824806785608D2D
:1010200020852D48E0622B464A465146204600F076
:10103000C3FF90B9206841698069009036E02A4674
:101040004946204601F0D8F850B1206C042804D15C
:101050002068016841F4007101600120BDE8F88F4B
:10106000606A216800780861606A401C6062618D76
:10107000491E6185218D491E89B2218522685369E7
:10108000DB435B070BD451B100781061606A401CF0
:101090006062608D401E6085208D401E20852A463E
:1010A0004946204600F0D6FF0028CED1208D0028EA
:1010B000C5D154F83D0B016841F400710160202056
:1010C00004F81E09E67766770020C7E7FFE70220ED
:1010D000C4E70000020010000000FFFF10B586B05A
:1010E0000021009101910291039100680F4988420B
:1010F0001AD10F4CA06940F00800A061A0696946B0
:1011000000F008000490C0200090122001900320FD
:1011100003900848FFF784FDE06940F40010E061A7
:10112000E06900F40010049006B010BD00540040C7
:1011300000100240000C014002488168027811440E
:10114000816070471C000020074810B5016841F01D
:1011500010010160032000F075F80F2000F006F880
:1011600000F024F8002010BD0020024070B50D4DA5
:1011700004464FF47A712878B1FBF0F00A49096807
:10118000B1FBF0F000F04FFD48B9102C07D200225F
:101190002146501E00F036F800206C6070BD012022
:1011A00070BD00001C000020280000200C4808B57D
:1011B000816941F001018161816901F001010091C2
:1011C000C16941F08051C161C06900F08050009058
:1011D0000448416821F0E06141F00071416008BDC0
:1011E0000010024000000140002809DB00F01F024F
:1011F000012191404009800000F1E020C0F8001179
:1012000070470000F0B40E4B1B680C46C3F302237A
:10121000C3F10705042D00D90425191D072901D2A2
:10122000002300E0DB1E012606FA05F1491E2140DD
:1012300099409E40761E16403143F0BC01F06DBBD4
:101240000CED00E0064900F0070208684FF6FF03C6
:10125000184040EA0220034A10430860704700002B
:101260000CED00E00000FA0501490120086270471A
:1012700000000E4210B501460020234C012922D067
:10128000022939D010291DD161682268D20119D5EF
:101290001E48C1F38342C903805C0AD561681B4ABA
:1012A000C1F34041921E515C194AB2FBF1F148432F
:1012B00001E0184948436168490203D44000032112
:1012C000B0FBF1F010BD226AC2F30121012903D164
:1012D000920701D5C80310BD022905D1626A9207A1
:1012E00002D549F6404010BD0329FCD1216889038D
:1012F000F9D54FF2244010BD00F02AF96168C1F31E
:101300008131491C4900DBE700100240B82B00087E
:1013100000127A0000093D002DE9F84305460078E7
:10132000354CC00754D0E0690026C00008D4E069FD
:1013300040F08050E061E069012600F080500090AC
:101340002E480168C90512D40168804641F48071B5
:101350000160FFF763FD074605E000BFFFF75EFD94
:10136000C01B642823D8D8F80000C005F6D5206A31
:1013700010F4407021D0A98801F4407181421CD042
:10138000206A1F49012220F440700A6000220A608E
:101390002062C00711D0FFF741FD074641F28838AF
:1013A00008E000BFFFF73AFDC11B414502D9032009
:1013B000BDE8F883206A8007F4D5206A696820F4C4
:1013C0004070084320621EB1E06920F08050E06167
:1013D0002878800705D56068A96820F44040084354
:1013E00060602878C00605D56068E96820F4800050
:1013F000084360600020DBE70010024000700040FE
:10140000400442422DE9F0470F46050061D0434EAB
:10141000306800F00700B84209D2306820F00700B9
:1014200038433060306800F00700B84251D1286876
:101430003B4C810712D5400703D5606840F4E0605B
:1014400060602878000703D5606840F460506060F1
:101450006068A96820F0F000084360602878C00741
:1014600028D06868012810D02168022810D0890788
:1014700000292EDA616821F0030101436160FFF762
:10148000CDFC804641F288390DE021688903EFE701
:101490008901EDE7FFF7C2FCA0EB0801494502D93D
:1014A0000320BDE8F0876068696800F00C00B0EBCD
:1014B000810FEFD1306800F00700B8420BD93068D7
:1014C00020F0070038433060306800F00700B84271
:1014D00001D00120E5E72878400705D56068E96874
:1014E00020F4E060084360602878000706D5606853
:1014F000296920F4605040EAC100606000F038F8CB
:101500006168084AC1F30311515CC840064908608C
:1015100006480068FFF72AFE0020C2E700200240CC
:1015200000100240C82B00082800002020000020E6
:101530000448054900684968044AC1F30221515C26
:10154000C84070472800002000100240D82B000837
:101550000448054900684968044AC1F3C221515C46
:10156000C84070472800002000100240D82B000817
:101570000E4A51680E4801F00C03042B11D0082BC1
:101580000FD10C48C1F38343C903C05C0AD551682D
:10159000084AC1F34041921E515C054A5043B0FBDA
:1015A000F1F07047044948437047000000100240C2
:1015B00000127A00A62B000800093D002DE9F84F23
:1015C000040070D02078C04DC00749D06868C0F3CF
:1015D0008100012807D06868C0F38100022809D182
:1015E0006868C00306D52868800339D5606800287C
:1015F000E7D035E06068B0F5803F0BD010B1B0F5B2
:10160000A02F11D0286820F480302860286820F4AA
:10161000802002E0286840F480302860606890B143
:10162000FFF7FCFB06460AE0286840F480202860AB
:10163000F0E700BFFFF7F2FB801B642873D828682F
:101640008003F7D50CE0FFF7E9FB064605E000BF95
:10165000FFF7E4FB801B6428F0D828688003F7D4E8
:1016600020789A4E80074FF001094FF0000839D5D5
:10167000686810F00C0F07D06868C0F3810002287A
:1016800009D16868C00306D42868800714D520698A
:10169000012808D110E02069B0B1C6F80090FFF72A
:1016A000BDFB074605E00AE1FFF7B8FBC01B0228B7
:1016B000C4D828688007F7D52868616920F0F80049
:1016C00040EAC10028600DE0C6F80080FFF7A6FBE5
:1016D000074604E0FFF7A2FBC01B022823D82868B6
:1016E0008007F7D4207800072CD57948A169D9B1B3
:1016F000C0F80090FFF792FB074604E0FFF78EFB6F
:10170000C01B02280FD8686A8007F7D571484FF4CC
:10171000FA510068B0FBF1F0009000BF0098411E44
:101720000091FAD20EE080E0C0F80080FFF776FB6F
:10173000074604E0FFF772FBC01B022875D8686AF1
:101740008007F7D42078400760D5E8690027C000FB
:1017500008D4E86940F08050E861E869012700F0AA
:10176000805000905C480168C90513D40168834625
:1017700041F480710160FFF751FB824606E000BF33
:10178000FFF74CFBA0EB0A0064284ED8DBF8000002
:10179000C005F5D5E06801280AD008B1052813D0A6
:1017A000286A20F001002862286A20F0040002E084
:1017B000286A40F001002862E06841F2883B98B155
:1017C000FFF72CFB82460BE0286A40F004002862F9
:1017D000EEE700BFFFF722FBA0EB0A0159455AD8FC
:1017E000286A8007F6D50CE0FFF718FB824605E073
:1017F000FFF714FBA0EB0A0159454CD8286A800773
:10180000F6D41FB1E86920F08050E861E06988B340
:101810006968C1F38101022944D00228C6F86080BA
:1018200004D0FFF7FBFA044638E034E0FFF7F6FA9D
:10183000074604E0FFF7F2FAC01B02282BD82868FD
:101840008001F7D4206AB0F5803F05D16868A168AF
:1018500020F4003008436860D4E90801084369684F
:1018600021F4741108436860C6F86090FFF7D6FA57
:10187000044606E025E000BFFFF7D0FA001B02286F
:1018800009D828688001F7D51BE000BFFFF7C6FA2A
:10189000001B022802D90320BDE8F88F28688001C8
:1018A000F4D40EE00128F7D06868226A00F4803191
:1018B000914204D1616A00F47010884201D0012085
:1018C000EAE70020E8E70000001002400000424282
:1018D0008004424228000020007000402DE9F047BB
:1018E00091460C465FEA00084AD084B3D8F800005D
:1018F0004068400744D4404600F06AFE4FF46162FD
:101900000546B0FBF2F1B0FBF2F302FB13503C23AF
:10191000B0FBF3F0B5FBF2F6607002FB1650B0FBC3
:10192000F3F203FB1200A070182931D31820B1FB89
:10193000F0F7B1FBF0F200FB12102070404600F00F
:1019400040FE411C04D0A84202D9461B02E017E029
:101950004FF0FF36A7EB071000EB4000C0EB001084
:1019600005EBC0152946404600F081FE40B9701CC9
:1019700001D0711900E03146404600F064FE10B11C
:101980000120BDE8F0873946404600F08EFD00E0BA
:101990002170B9F1000F0BD0207800F07BFD207092
:1019A000607800F077FD6070A07800F073FDA070A3
:1019B0000020E6E770B5040003D0607C002610B17B
:1019C00005E0012070BD2674204600F03DF802209D
:1019D0006074204600F00AF9042550BB204600F050
:1019E000BBFD30BB2068416821F007014160A06861
:1019F00020B11448016821F0010101601148001F65
:101A00000168A26821F46071114301606068411CA3
:101A100004D10120FFF72EFC58B1401E2268C0F30C
:101A200003419160216880B2C860204600F0AEFD9D
:101A300008B16574C5E7E67301206073A073607434
:101A4000002070BD306C004008B50068084988422D
:101A50000DD1FFF709FC0748C16941F00061C16180
:101A6000C069054900F0006000900120086008BDD1
:101A700000280040001002403C0442422DE9F041A1
:101A80000D4604003BD0C5B3207C01283AD04FF06E
:101A9000010884F8108002206074E87872B300F0C6
:101AA000F0FCE073687800F0ECFC6073A87800F05C
:101AB000E8FCA073C2B2617BE07B00F099FD20736B
:101AC0002870204600F084FD4FF46161B0FBF1F115
:101AD000002518292DD91822B1FBF2F1A1EB011133
:101AE00001EB4101C1EB011100EBC116314620466B
:101AF00000F0BDFD0427C8B90BE000E004E00120C0
:101B0000BDE8F0810220FBE7E07368786073A87895
:101B1000CFE7204600F055FD411C0AD0B04208D264
:101B200006490144204600F08EFD10B1677425740B
:101B3000E5E784F8118025740020E1E78051010079
:101B40002DE9F0410D46040024D01DB3207C01286E
:101B500023D04FF0010884F81080022060742878A8
:101B6000EAB100F08EFC4FF4616100FB01F6687889
:101B700000F087FCC0EB001006EB8006A87800F0B0
:101B800080FC35182946204600F071FD0026042708
:101B900010BB0FE00120BDE8F0810220FBE74FF40D
:101BA000616148436978C1EB011100EB8100A978BC
:101BB0004518E7E72068416821F0050141602046AB
:101BC00000F0FFFC411C0AD0A84208D2064901449B
:101BD000204600F038FD10B167742674DAE784F807
:101BE000118026740020D6E78051010070B50400F2
:101BF0000AD02068416821F008014160FFF70EF922
:101C000005464FF47A7608E0012070BDFFF706F92B
:101C1000401BB04201D9032070BD20684068000716
:101C2000F4D5002070BD10B5401EB0F1807F01D307
:101C3000012010BD4FF0E02460610F21601700F01B
:101C40006CFE0020A06107202061002010BD000074
:101C500070B590F83C20012A26D0012480F83C4041
:101C6000022280F83D2003685A689D6822F07006C1
:101C70000A6832435A600D4B02689A4208D0B2F1AA
:101C8000804F05D00A4B9A4202D00A4B9A4204D1A7
:101C9000496825F080031943916080F83D40002198
:101CA00080F83C10084670BD022070BD002C014039
:101CB000000400400008004010B5040003D094F870
:101CC0003D0010B107E0012010BD002084F83C0069
:101CD000204600F01FF8022084F83D00211D2068F6
:101CE00000F016FD012084F8460084F83E0084F8D8
:101CF0003F0084F8400084F8410084F8420084F8F2
:101D0000430084F8440084F8450084F83D00002036
:101D100010BD000008B500680649884208D1064891
:101D2000816941F400618161806900F40060009084
:101D300008BD0000002C01400010024070B50446B0
:101D400090F83C000025012817D0012684F83C605B
:101D5000022084F83D002068826822F0770222F495
:101D60007F4282600868502838D00DDC20284FD090
:101D700005DC90B3102811D14AE0022070BD302854
:101D800046D040280AD13BE060282FD070280DD0E3
:101D9000B0F5805F03D0B0F5005F12D0012584F864
:101DA0003D60002084F83C00284670BDCB68D1E936
:101DB0000121206800F0E2FC2068816841F0770191
:101DC00009E0CB68D1E90121206800F0D7FC206848
:101DD000816841F480418160E1E719E0CA6849689F
:101DE000206800F0DDFC5021206806E0CA684968E0
:101DF000206800F0E6FC6021206800F0C9FCCEE716
:101E0000CA684968206800F0CBFC40212068F4E7EC
:101E1000226801461046F0E770B5040004D094F83B
:101E20004100002510B106E0012070BD84F840504B
:101E3000204600F023F8242084F841002068C1687F
:101E400021F40051C160204600F0CEFC20680169F9
:101E500021F4904101612068416921F02A0141612A
:101E60002068C16841F40051C1606564202084F895
:101E7000410084F842006563002070BD30B585B034
:101E80000024009401940294039400681449884249
:101E900024D11448816941F480418161816901F450
:101EA00080410491816941F00401816180690E4D96
:101EB00000F0040004904FF40070009002200190A4
:101EC0000320039069462846FEF7AAFE2815CDE9AF
:101ED0000004694628460294FEF7A2FE05B030BD14
:101EE0000038014000100240000801402DE9F8438D
:101EF000044690F841001F4616460D46202802D0A1
:101F00000220BDE8F8837DB176B100206064212015
:101F100084F84100FEF782FFA6848046E684A0682C
:101F2000B0F5805F02D003E00120EAE7206910B13C
:101F30002E4600250EE000260CE08021204600F011
:101F4000AFFCA0B9AEB116F8010B21684860E08C77
:101F5000401EE084E08C43464FF0000200970028CA
:101F6000EBD14FF04001204600F09AFC30B1032045
:101F7000C7E735F8020BC0F30800E6E7202084F835
:101F800041000020BDE7FEE701684A69D2435205DF
:101F90000FD46FF480624A61002140F8301F202284
:101FA00042738173026942F00402026101730120ED
:101FB0007047002070470000F8B50446C06A1E460E
:101FC0000D461746082807D0012805D010F5803F98
:101FD00002D0206B122804D12068016841F480717E
:101FE0000160134600224FF001112046009600F0D8
:101FF0005DF840B120680068C00502D54FF400705C
:1020000020640320F8BD2069B0F5804F0ED0062073
:10201000216800EAD51040F0F000086133463A46E6
:102020000B49204600F08AF878B902E005F0FE007E
:1020300000E0E8B221680861054933463A46891F45
:10204000204600F07BF80028DCD00120F8BD00001D
:102050000800010070B516460D4604461EE02046F5
:10206000FFF792FF08B1012070BD681C16D0FEF783
:10207000D5FE801BA84200D885B920684069C043BE
:1020800040070BD5002044F8300F20216173A07366
:10209000216941F0200121612073E4E72068406953
:1020A000C0434007DBD4002070BD00002DE9F0479D
:1020B000984617460D460446C1F30746DDF82090C2
:1020C0002AE000BFB8F1FF3F26D0FEF7A7FEA0EB45
:1020D0000901414502D8B8F1000F1DD12068012E39
:1020E00016D0806925EA00000004000C12D0002000
:1020F000B84211D1002044F8300F20216173A07341
:10210000216941F02001216120730120BDE8F087A1
:102110004069E7E70120EBE72068012E0AD08069DB
:1021200025EA00000004000C06D00020B842C9D007
:102130000020EBE74069F3E70120F7E72DE9F047DE
:10214000984616460D4604464FF000094FF0200A07
:10215000C1F3074723E020684069C043400515D418
:102160002068016841F40071016021686FF48060AB
:102170004861C4F8309084F83DA084F83E90216C0A
:1021800041F00401216484F83C9021E0701C06D0E9
:10219000FEF744FEA0EB0800B04203D816B1012FB1
:1021A0001FD021E02068012F15D0806925EA0000AA
:1021B0000004000C18D000BF44F8309F84F80DA034
:1021C00084F80E90216941F02001216184F80C907F
:1021D0000120BDE8F087406925EA00000004000CFA
:1021E000EAD12068406901E02068806925EA0000A2
:1021F0000004000CAFD1ECE770B516460D4604465E
:102200001EE02046FFF7C0FE08B1012070BD681C2B
:1022100016D0FEF703FE801BA84200D885B92068BF
:102220004069C04300060BD5002044F8300F202140
:102230006173A073216941F0200121612073E4E7FB
:1022400020684069C0430006DBD4002070BD000058
:102250003EB5002410480094019402940D49846016
:10226000016004730475012505614FF46021446029
:10227000C161FEF74DFB08B172B6FEE7CDE900453E
:10228000694605480294FEF7C1FA002801D072B6EB
:10229000FEE73EBD00240140CC0000202DE9F041C6
:1022A00086B000253948009501950295039581690E
:1022B00041F010018161816901F01001049181698F
:1022C00041F020018161816901F02001049181695F
:1022D00041F004018161816901F004010491816987
:1022E00041F0080181618069294F00F008004FF436
:1022F00000540490002221463846FEF789FDDFF89D
:102300009480002201214046FEF782FD009401AA3C
:102310000124022682E8700069463846FEF780FCF8
:102320001D4F1020CDE90007694602941B48FEF7B7
:1023300077FC01AA009482E8700069464046FEF7E7
:102340006FFC40F20240CDE9000769460294404626
:10235000FEF766FC002211460720FEF753FF072018
:10236000FEF742FF002211460A20FEF74BFF0A202B
:10237000FEF73AFF002211462820FEF743FF2820EF
:10238000FEF732FF06B0BDE8F08100000010024009
:1023900000100140000C0140000021100008014025
:1023A0001CB500241A480194184900940160611E6C
:1023B00041604FF480718160FFF7FCFA08B172B69A
:1023C000FEE711208DF8040020208DF805008DF81F
:1023D0000640012201A90E48FFF7B2FB08B172B610
:1023E000FEE701208DF800008DF801008DF8020055
:1023F00023208DF80300012269460548FFF73EFBC4
:10240000002801D072B6FEE71CBD00000028004085
:102410005001002010B586B00024174800940194A4
:1024200002940394049413490594016043F67F6178
:10243000C0E901144911C0E9031444618461FFF744
:102440003BFC08B172B6FEE74FF48050009069463D
:102450000948FFF773FC08B172B6FEE7049404A9BB
:1024600005480594FFF7F4FB002801D072B6FEE79B
:1024700006B010BD002C014064010020FEE7FEE71D
:102480007047010901EB810100F00F0000EB4100F2
:10249000C0B27047002102E00A38C0B2491C0A28C5
:1024A000FAD2090740EA116070472DE9F04104466D
:1024B0000025C07B627BA37B42E0012A16D0032A61
:1024C00014D0052A12D0072A10D0082A0ED00A2AC2
:1024D0000CD00C2A0AD0042A10D0062A0ED0092AC1
:1024E0000CD00B2A0AD0022A0DD028E01F2B0CD3C7
:1024F0000C2A05D101221346401C20E01E2B04D3D8
:102500000123521C1BE01C2B02D203F1010316E035
:1025100011D183B29E0710D16426B3FBF6F706FBF8
:10252000173636B94FF4C876B3FBF6F706FB173308
:102530001BB91D2303E01D2B01D1032201236D1CB8
:102540008D42BAD3D1B2E0736173DAB2A27300F0F4
:102550004FF82073BDE8F08170B50446FEF75EFCCD
:1025600005464FF47A7606E0FEF758FC401BB04271
:1025700001D9032070BD206840688006F4D520682A
:10258000416841F010014160002070BD70B5044603
:102590000068416821F010014160FEF73FFC0546EC
:1025A0004FF47A7607E000BFFEF738FC401BB042DC
:1025B00001D9032070BD206840688006F4D5002052
:1025C00070BD0168086A496A89B241EA00407047F3
:1025D000006881698AB2C1698BB2816989B28A4215
:1025E00003D0C06961F31F40704743EA024070475F
:1025F000F0B56424C1EBC1030927A500072603EB4E
:1026000001130329B3FBF7F100F5FA60114401440B
:102610000AD2401EB0FBF4F201EB9001B0FBF5F0E2
:10262000891A0844001D08E0B0FBF4F201EB9001A8
:10263000B0FBF5F0891A0844801CB0FBF6F106FBEC
:102640001100C0B2F0BD70B50D4606460024FFF77C
:1026500083FF48B93168280C08623168A8B2486223
:102660003046FFF793FF00B10124204670BD70B5DE
:102670000D4606460024FFF76FFF48B93168280C65
:1026800088613168A8B2C8613046FFF77FFF00B1AA
:102690000124204670BD7047FEF74EBD10B594B0C2
:1026A00028216846FDF7A8FE14210AA8FDF7A4FE1C
:1026B00000240F940A200090012010941194CDE979
:1026C00006041021CDE9040112946846FEF776FF56
:1026D00008B172B6FEE70F20CDE90A040C940D9400
:1026E00000210AA80E94FEF78DFE08B172B6FEE72F
:1026F00003200F904FF40070CDE910040FA8FEF7EF
:102700000BFE002801D072B6FEE714B010BD704772
:10271000F0B50268164B174C174D4FF080479842A2
:1027200005D0B84203D0A04201D0A84203D122F084
:1027300070064A683243984205D0B84203D0A0429E
:1027400001D0A84203D122F44074CA6822434C69E4
:1027500022F08002224302608A68C2620A688262B2
:10276000984201D10969016301214161F0BD000076
:10277000002C0140000400400008004010B58468AF
:1027800042EA032224F47F440A432243826010BDBC
:10279000826822F070020A4342F0070181607047AC
:1027A00010B5036A046A24F001040462846924F009
:1027B000F00444EA021423F00A020A43846102622C
:1027C00010BD10B5036A046A24F010040462846921
:1027D00023F0A00324F4704444EA023243EA0111D6
:1027E0008261016210BD000070B504460068016995
:1027F000E26821F44051114301612169A068084356
:10280000616908432168CA6841F20C639A43024334
:10281000CA6020684169A26921F440711143416195
:102820001E492068884202D1FEF792FE01E0FEF7C1
:102830007FFE00EBC00101EB0012606864218000A4
:10284000B2FBF0F3B3FBF1F36FF018067343B2FB86
:10285000F0F5B2FBF0F605EB8305322303EB05152B
:10286000B5FBF1F5B6FBF1F605F0F00505EB061545
:10287000B2FBF0F6B2FBF0F0B0FBF1F06FF0180233
:10288000504306EB800003EB0010B0FBF1F0216831
:1028900000F00F002844886070BD0000003801403F
:1028A0002DE9F041984617460E460446069D27E05E
:1028B000681C25D02DB1FEF7B1FAA0EB0800A842A4
:1028C0001ED920680C3050E8001F21F4D07140E878
:1028D0000012002AF5D12068143050E8001F21F0C2
:1028E000010140E80012002AF5D1202084F84100BF
:1028F00084F84200002084F840000320BDE8F08105
:102900002068006836EA000004D00020B842CFD02A
:102910000020F3E70120F9E7FEE70907090E002888
:1029200004DB00F1E02080F80014704700F00F0095
:1029300000F1E02080F8141D704730380A2801D2D9
:1029400001207047002070471CB5FEF7FDFBFFF724
:10295000A5FEFFF7A3FCFFF75DFDFFF779FC6C48D0
:102960006A49002401606B49C0E901144FF48041B9
:10297000C0E9034144618461C4610462FEF754FA12
:1029800008B172B6FEE762486349B03001604FF4A7
:10299000E131C0E901140C21C460C0E90441846143
:1029A000C461FFF739FA08B172B6FEE7FFF7F8FC29
:1029B00002205749009010234E2201F1F800FDF744
:1029C00062FE564D564C4FF4FA76A068012802D0AC
:1029D000022851D074E04E483038FEF753F84FF4D7
:1029E0007A70FEF7C9F84A483038FDF78DFF60600D
:1029F00047483038FEF7A6F860686421484340F63F
:102A0000FF71B0FBF1F02061414800221146F8301F
:102A1000FDF78AFE3E4843A1F830FDF7AAFE3C4888
:102A200000220821F830FDF77FFE3D4841A1143017
:102A30002269FDF7CDFB3A4935481431F830FDF7EE
:102A400098FE3348002201A95430FEF747FF9DF855
:102A5000060000902E489DF805309DF8042036A110
:102A6000B238FDF7B5FB2A4801220021F830FDF706
:102A70005BFE2749B2391FE0254800221146F83095
:102A8000FDF752FE224831A1F830FDF772FE2048D2
:102A900001220021F830FDF747FE1D4822782FA1C2
:102AA000D038FDF795FBE068012802D0022802D05B
:102AB00006E02EA100E031A11548F830FDF759FEDF
:102AC0002069192802D9E168012905D014280AD201
:102AD000E068012802D006E0012200E00022012186
:102AE0002846FEF795F90A4828A14E382269FDF7D5
:102AF0006FFB07490A234E391E2201F1FE00FFF742
:102B0000F5F93046FEF738F85FE700000054004062
:102B1000FC000020A086010000380140000C0140AC
:102B2000000000204E6F6E6720446F3A2020202561
:102B3000000000002564200025643A253032643A04
:102B4000253032642020202020000000202020207A
:102B500020204D6F64652020202020002020202090
:102B6000202020256420202020000000202020207C
:102B700020204175746F202020200000202020207C
:102B8000204D616E75616C20200000004E6F6E67F5
:102B900020646F206B686920676173202564200AB8
:102BA0000D000000010202030405060708090A0BD4
:102BB0000C0D0E0F10100102020304050607080990
:102BC0000A0B0C0D0E0F101000000000000000009A
:102BD00001020304060708090000000001020304C3
:102BE00004000008000000000000000200010000D6
:102BF00010000000142C0008000000202C00000031
:102C000028010008402C00082C0000203408000097
:102C10004401000800000000000000000100000066
:102C200001000000000000000000000000000000A3
:102C30000100000010000000000000000024F4006B
:04000005080000ED02
:00000001FF
